{
    "contractName": "PsyBet",
    "abi": [
        {
            "inputs": [],
            "payable": false,
            "stateMutability": "nonpayable",
            "type": "constructor"
        },
        {
            "constant": true,
            "inputs": [],
            "name": "numPayments",
            "outputs": [
                {
                    "internalType": "uint256",
                    "name": "",
                    "type": "uint256"
                }
            ],
            "payable": false,
            "stateMutability": "view",
            "type": "function"
        },
        {
            "constant": true,
            "inputs": [],
            "name": "owner",
            "outputs": [
                {
                    "internalType": "address",
                    "name": "",
                    "type": "address"
                }
            ],
            "payable": false,
            "stateMutability": "view",
            "type": "function"
        },
        {
            "constant": true,
            "inputs": [],
            "name": "paused",
            "outputs": [
                {
                    "internalType": "bool",
                    "name": "",
                    "type": "bool"
                }
            ],
            "payable": false,
            "stateMutability": "view",
            "type": "function"
        },
        {
            "constant": true,
            "inputs": [
                {
                    "internalType": "address",
                    "name": "",
                    "type": "address"
                }
            ],
            "name": "paymentHistory",
            "outputs": [
                {
                    "internalType": "uint256",
                    "name": "amount",
                    "type": "uint256"
                },
                {
                    "internalType": "uint256",
                    "name": "timestamp",
                    "type": "uint256"
                }
            ],
            "payable": false,
            "stateMutability": "view",
            "type": "function"
        },
        {
            "constant": true,
            "inputs": [],
            "name": "value",
            "outputs": [
                {
                    "internalType": "uint256",
                    "name": "",
                    "type": "uint256"
                }
            ],
            "payable": false,
            "stateMutability": "view",
            "type": "function"
        },
        {
            "constant": false,
            "inputs": [
                {
                    "internalType": "address payable",
                    "name": "_address",
                    "type": "address"
                }
            ],
            "name": "chargeWallet",
            "outputs": [],
            "payable": true,
            "stateMutability": "payable",
            "type": "function"
        },
        {
            "constant": false,
            "inputs": [
                {
                    "internalType": "bool",
                    "name": "_value",
                    "type": "bool"
                }
            ],
            "name": "setPause",
            "outputs": [],
            "payable": false,
            "stateMutability": "nonpayable",
            "type": "function"
        },
        {
            "constant": true,
            "inputs": [],
            "name": "getBalanceOf",
            "outputs": [
                {
                    "internalType": "uint256",
                    "name": "",
                    "type": "uint256"
                }
            ],
            "payable": false,
            "stateMutability": "view",
            "type": "function"
        },
        {
            "constant": false,
            "inputs": [
                {
                    "internalType": "address payable",
                    "name": "_to",
                    "type": "address"
                }
            ],
            "name": "destorySmartContract",
            "outputs": [],
            "payable": false,
            "stateMutability": "nonpayable",
            "type": "function"
        }
    ],
    "bytecode": "0x608060405234801561001057600080fd5b50336000806101000a81548173ffffffffffffffffffffffffffffffffffffffff021916908373ffffffffffffffffffffffffffffffffffffffff16021790555061061d806100606000396000f3fe6080604052600436106100865760003560e01c80635c975abb116100595780635c975abb1461019e5780638da5cb5b146101cd57806398c07d0714610224578063bedb86fb14610268578063ecbde5e6146102a557610086565b80632279fa4c1461008b5780633be4f30f146100b65780633fa4f245146101225780635291f2b01461014d575b600080fd5b34801561009757600080fd5b506100a06102d0565b6040518082815260200191505060405180910390f35b3480156100c257600080fd5b50610105600480360360208110156100d957600080fd5b81019080803573ffffffffffffffffffffffffffffffffffffffff1690602001909291905050506102d6565b604051808381526020018281526020019250505060405180910390f35b34801561012e57600080fd5b506101376102fa565b6040518082815260200191505060405180910390f35b34801561015957600080fd5b5061019c6004803603602081101561017057600080fd5b81019080803573ffffffffffffffffffffffffffffffffffffffff169060200190929190505050610300565b005b3480156101aa57600080fd5b506101b36103db565b604051808215151515815260200191505060405180910390f35b3480156101d957600080fd5b506101e26103ee565b604051808273ffffffffffffffffffffffffffffffffffffffff1673ffffffffffffffffffffffffffffffffffffffff16815260200191505060405180910390f35b6102666004803603602081101561023a57600080fd5b81019080803573ffffffffffffffffffffffffffffffffffffffff169060200190929190505050610413565b005b34801561027457600080fd5b506102a36004803603602081101561028b57600080fd5b810190808035151590602001909291905050506104e7565b005b3480156102b157600080fd5b506102ba6105c6565b6040518082815260200191505060405180910390f35b60015481565b60046020528060005260406000206000915090508060000154908060010154905082565b60025481565b3373ffffffffffffffffffffffffffffffffffffffff166000809054906101000a900473ffffffffffffffffffffffffffffffffffffffff1673ffffffffffffffffffffffffffffffffffffffff16146103c2576040517f08c379a00000000000000000000000000000000000000000000000000000000081526004018080602001828103825260188152602001807f27796f75206172652077726f6e6720706572736f6e212121000000000000000081525060200191505060405180910390fd5b8073ffffffffffffffffffffffffffffffffffffffff16ff5b600060149054906101000a900460ff1681565b6000809054906101000a900473ffffffffffffffffffffffffffffffffffffffff1681565b61041b6105ce565b604051806040016040528034815260200142815250905080600460003373ffffffffffffffffffffffffffffffffffffffff1673ffffffffffffffffffffffffffffffffffffffff168152602001908152602001600020600082015181600001556020820151816001015590505081600360006101000a81548173ffffffffffffffffffffffffffffffffffffffff021916908373ffffffffffffffffffffffffffffffffffffffff160217905550600160008154809291906001019190505550346002819055505050565b3373ffffffffffffffffffffffffffffffffffffffff166000809054906101000a900473ffffffffffffffffffffffffffffffffffffffff1673ffffffffffffffffffffffffffffffffffffffff16146105a9576040517f08c379a000000000000000000000000000000000000000000000000000000000815260040180806020018281038252601d8152602001807f796f752061726520766572792077726f6e6720706572736f6e2021212100000081525060200191505060405180910390fd5b80600060146101000a81548160ff02191690831515021790555050565b600047905090565b60405180604001604052806000815260200160008152509056fea265627a7a72315820c67de1e1310f2753bbd00e4ae349616c389c085089017090819efe489b9ba59264736f6c63430005100032",
    "source": "// SPDX-License-Identifier: MIT\r\n\r\npragma solidity >=0.4.25 <0.7.0;\r\n\r\ncontract PsyBet {\r\n\r\n    address public owner;\r\n    bool public paused;\r\n    uint public numPayments;\r\n    uint public value;\r\n    address payable user;\r\n\r\n    struct Payment {\r\n        uint amount;\r\n        uint timestamp;\r\n    }\r\n\r\n    mapping(address => Payment) public paymentHistory;\r\n\r\n    constructor() public {\r\n        owner = msg.sender;\r\n    }\r\n\r\n    modifier onlyCreator () {\r\n        // require(msg.sender == owner,\"access denied !!!\");\r\n        _;\r\n    }\r\n\r\n    function chargeWallet (address payable _address) public payable {\r\n        Payment memory _payment = Payment(msg.value, block.timestamp);\r\n        paymentHistory[msg.sender] = _payment;\r\n        user = _address;\r\n        numPayments ++;\r\n        value = msg.value;\r\n    }\r\n\r\n    function setPause(bool _value) public {\r\n        require(owner == msg.sender,\"you are very wrong person !!!\");\r\n        paused = _value;\r\n    }\r\n\r\n   function getBalanceOf () public view returns(uint) {\r\n        return address(this).balance;\r\n    }\r\n\r\n    function destorySmartContract(address payable _to) public {\r\n        require(owner == msg.sender,\"'you are wrong person!!!\");\r\n        selfdestruct(_to);\r\n    }\r\n\r\n}",
    "sourcePath": "d:\\project\\psybet\\psybet-smartcontract\\contracts\\psybet.sol",
    "compiler": {
        "name": "solc",
        "version": "0.5.16+commit.9c3226ce.Emscripten.clang"
    },
    "schemaVersion": "3.4.7",
    "updatedAt": "2022-07-16T10:29:01.863Z",
    "networkType": "ethereum",
    "devdoc": {
        "methods": {}
    },
    "userdoc": {
        "methods": {}
    }
}